:020000040000FA
:02000000292AAB
:040008008031392AE0
:02000E00C50823
:10001000031D0B280800F93000000000000000005C
:1000200000000000000000000000000000000000D0
:10003000FF3E031D0C28000000000000000000002F
:1000400000000000000000000000000000000000B0
:10005000C50B0B280800460823009A009E1C2E287A
:10006000080023009D1C36281D121D162000B40117
:10007000B501B601B7013E083D06031D4F2800300B
:100080003702031D4D2800303602031D4D28003075
:100090003502031D4D28C8303402031C3B283408A8
:1000A000C83C031D61283508003C031D6128360843
:1000B000003C031D61283708003C031D6128C7016F
:1000C000080000308500203084003E0884070008C6
:1000D000C600BE0A14303E02031C70281430BE0253
:1000E0004608C70008004508C6002B2031204508F7
:1000F0004706031D7E280130C6000800C60108001F
:10010000D401D501D601D701DA01DB01DC01DD0123
:10011000D80120305805D900D908031D0800DA3568
:10012000DB0DDC0DDD0DC70DC80DC90DCA0DD40DDD
:10013000D50DD60DD70D4E085702031DA9284D0821
:100140005602031DA9284C085502031DA9284B0877
:100150005402031CBA284B08D4024C08031C4C0F51
:10016000D5024D08031C4D0FD6024E08031C4E0F3E
:10017000D7025A14D80A89281E30410242080318AF
:10018000C3280319C528C21FC9281E30C100C201D7
:10019000D7284208013C031DCF2841082C3C0318F6
:1001A000D728C21BD7282C30C1000130C20041081B
:1001B000BA004208BB00D030C3001230C400133074
:1001C000C500C601D3014308C7004408C80045085C
:1001D000C9004608CA003A08CB003B08CC00CD0154
:1001E000BB1BCD03CE01BB1BCE03BB1F0329CB0919
:1001F000CC09CD09CE09CB0A0319CC0A0319CD0AC3
:100200000319CE0AD30A80205A08CF005B08D00019
:100210005C08D1005D08D200531C1929CF09D00910
:10022000D109D209CF0A0319D00A0319D10A031937
:10023000D20A4F08C3005008C4005108C500520834
:10024000C6004308FF3CC700FF30C8004408031C39
:10025000440FC8024708B8004808B9000800200049
:100260009114911221009110911623001F129F15D5
:100270009F101F101E139E161E129E111E111E107F
:100280009D171D139D161D169C011F309B00080015
:1002900020003E08BD00FA30C5007320C608031DCB
:1002A0005329C4010800C001C201C30150304202F9
:1002B000430803185D2903195F29C31FB029C5012D
:1002C000C0080319C50A451C672922000E14200026
:1002D00045186C2922000E102000C00A4008183A68
:1002E0000319C001F830C5007320C608031D7A2920
:1002F000C40108009030C5007320C608031D822980
:10030000C40108004208C5007320C608031D8A29DD
:10031000C40108007F30C5007320C608031D922960
:10032000C40108001E30C50007208030C5007320BE
:10033000C608031D9D29C40108004208C50073209A
:10034000C608031DA529C4010800C5017320C608FD
:10035000031DAC29C4010800C20A0319C30A5629A7
:100360000130C40008007A302100990030308C0040
:1003700038308E0023008C018E0120008C018E010C
:1003800024008E15210095132F2178302000C10004
:10039000C201BC20960197019813181398161816DD
:1003A0001814210011149512951115119514151496
:1003B0008B160B118B170B17C8302000C5000720B8
:1003C00022008C1420008E1D002AC201C0080319CF
:1003D000C20A421CED2922000E1420004218F22904
:1003E00022000E102000C00A4008183A0319C0016C
:1003F000F830C6002B201E302000C5000720E2295F
:1004000022008C100C100C1548214408C100C201B8
:10041000C1080319C20AC301C2080319C30A431C55
:10042000132A22008C1420004318182A22008C1052
:100430002000C201C1080319C20A421C212A22005D
:100440000C1420004218262A22000C1022000C1145
:10045000E2292000BC01B801B901B401B501B6011F
:10046000B701BD01BE01BA01BB01BF01C0018031AE
:10047000B3290B1D462A053020009500B40A031944
:10048000B50A0319B60A0319B70A0B112000111C8B
:10049000542A3808DE005E0896003908DE005E083F
:1004A00097000130BC001110911E090023001908AB
:1004B0002000DE003D0ADF0014305F02031C622AC8
:1004C0001430DF023E085F06031909000030850082
:1004D000203084003D0884075E0880005F08BD006E
:0204E000090011
:020000040001F9
:02000E00A4FF4D
:02001000FFDE11
:00000001FF
