:020000040000FA
:020000005D2879
:0400080080315F28BC
:02000E00A50843
:10001000031D0B280800F93000000000000000005C
:10002000FF3E031D0C28000000000000000000003F
:10003000A50B0B28080020009110911221009110AF
:10004000911623001F129F159F101F101E139E1242
:100050001E129E111E111E109D171D139D161D169A
:100060009C010F309B00080021009512951115117D
:10007000951415108B160B11080072302100990091
:1000800020308C0023008C0120008C0122009D1761
:100090001D1520000C110C120C148C14C830A50076
:1000A00007200C108C10A001A101A201A301A40142
:1000B00034201B208B170B175C2880313D28200033
:1000C000911E9528230019082000A6000C14013069
:1000D000A0002608F83A03197728023A03198E2857
:1000E000013A03199128073A031993289428A30881
:1000F000031D7D288C143230A100A30A183023027E
:100100000318A301A408031D88280C160F30A200B1
:10011000A40A063024020318A4019428A3010C1594
:1001200094280C1594280C1191120B1D0900053010
:100130009500A00803199F28A00B9F280C10A10868
:100140000319A528A10BA5288C10A2080319AB2818
:0A015000A20BAB280C120B110900E2
:020000040001F9
:02000E00A4FF4D
:02001000FFDE11
:00000001FF
