:020000040000FA
:020000005D2879
:0400080080315F28BC
:02000E00A50843
:10001000031D0B280800F93000000000000000005C
:10002000FF3E031D0C28000000000000000000003F
:10003000A50B0B28080020009110911221009110AF
:10004000911623001F129F159F101F101E139E1242
:100050001E129E111E111E109D171D139D161D169A
:100060009C010F309B00080021009512951115117D
:10007000951415108B160B11080072302100990091
:1000800020308C0023008C0120008C0122009D1761
:100090001D1520000C110C120C148C14C830A50076
:1000A00007200C108C10A001A101A201A301A40142
:1000B00034201B208B170B175C2880313D28200033
:1000C000911E9628230019082000A6000C14013068
:1000D000A0002608F83A03197728023A03198F2856
:1000E000013A03199228073A031994289528A3087E
:1000F000031D89288C143230A100A408031D832815
:100100000C160F30A200A701A4080319A70A27089C
:10011000A400A30A183023020318A3019528A30101
:100120000C1595280C1595280C1191120B1D090022
:1001300005309500A0080319A028A00BA0280C10DA
:10014000A1080319A628A10BA6288C10A208031940
:0C015000AC28A20BAC280C120B1109000B
:020000040001F9
:02000E00A4FF4D
:02001000FFDE11
:00000001FF
