:020000040000FA
:02000000AF2827
:040008008031B1286A
:02000E00B00838
:10001000031D0B280800F93000000000000000005C
:10002000FF3E031D0C28000000000000000000003F
:10003000B00B0B280800230095181B2820002D0862
:100040002300910020002E0823009300951315151E
:1000500020002F108B1B2F148B135530230096007C
:10006000AA3096009514151120002F188B172F1CFD
:100070008B1308002000911091122100911091160D
:1000800023001F129F159F101F101E139E121E1279
:100090009E111E111E109D171D139D161D169C01ED
:1000A0000F309B0008002100951295111511951431
:1000B00015108B160B110800230095185C282000E2
:1000C0002A08230091009513151413082000AB0093
:1000D000080072302100990020308C0023008C0130
:1000E00020008C010C30A8000F30A900AA015C2070
:1000F0002B08A53A03198B280130AD002808AE0063
:100100001B200230AD002908AE001B20AD01A53038
:10011000AE001B2095280130AA005C202B08A80007
:100120000230AA005C202B08A90022009D171D1593
:100130000C110C120C148C14C8302000B0000720D5
:1001400022000C108C102000A001A101A201A3012B
:10015000A401A70153203A208B170B17AE2880313A
:1001600069282000911E6929230019082000AC008D
:1001700022000C1401302000A0002C08F83A0319CA
:10018000CB28023A0319E628013A0319EA28073A6C
:100190000319ED28F028A308031DD32822008C148E
:1001A00032302000A100A30A183023020318A30153
:1001B000A408031DE02822000C1620002908A20034
:1001C000A40A280824020318A4016729A301220015
:1001D0000C15672922000C15672922000C116729CC
:1001E0002708003A03190D29013A03191429033A83
:1001F00003191B29013A03192329073A03192B294B
:10020000013A03193329033A03193B29013A031927
:100210003F290F3A0319432966292C08F03A031D98
:1002200067290130A7006729AC08031D1929A70A0F
:100230006729A70167292C087F3A031D2129A70AEE
:100240006729A70167292C08183A031D2929A70A3D
:100250006729A70167292C080A3A031D3129A70A33
:100260006729A70167292C08053A031D3929A70A20
:100270006729A70167292C08A500A70A67292C0868
:10028000A600A70A67292C08F73A031D6629A508C6
:1002900003196629A608031966290130AD0025084F
:1002A000AE001B200230AD002608AE001B2022004D
:1002B0000C108C1464302000B000072022000C14B5
:1002C0008C1064302000B00007205729A7012000BF
:1002D00091120B1D090005309500A008031974291F
:1002E000A00B742922000C102000A10803197C29FE
:1002F000A10B7C2922008C102000A208031984295C
:0C030000A20B842922000C120B11090032
:020000040001F9
:02000E00A4FF4D
:02001000FFDE11
:00000001FF
