:020000040000FA
:020000004D2A87
:0400080080315D2ABC
:02000E00C50823
:10001000031D0B280800F93000000000000000005C
:1000200000000000000000000000000000000000D0
:10003000FF3E031D0C28000000000000000000002F
:1000400000000000000000000000000000000000B0
:10005000C50B0B280800FA30C5000720FA30C50090
:100060000720FA30C5000720FA30C5000720C20B70
:100070002B280800460823009A009E1C3D280800F3
:1000800023009D1C45281D121D162000B401B5013A
:10009000B601B7013E083D06031D5E280030370259
:1000A000031D5C2800303602031D5C280030350239
:1000B000031D5C28C8303402031C4A283408C83C9D
:1000C000031D70283508003C031D70283608003CCD
:1000D000031D70283708003C031D7028C701080065
:1000E00000308500203084003E0884070008C600E8
:1000F000BE0A14303E02031C7F281430BE0246089C
:10010000C70008004508C6003A20402045084706B9
:10011000031D8D280130C6000800C6010800D40167
:10012000D501D601D701DA01DB01DC01DD01D801FF
:1001300020305805D900D908031D0800DA35DB0D39
:10014000DC0DDD0DC70DC80DC90DCA0DD40DD50DC3
:10015000D60DD70D4E085702031DB8284D0856027C
:10016000031DB8284C085502031DB8284B0854023B
:10017000031CC9284B08D4024C08031C4C0FD502A1
:100180004D08031C4D0FD6024E08031C4E0FD7021C
:100190005A14D80A98281E30410242080318D2285F
:1001A0000319D428C21FD8281E30C100C201E62876
:1001B0004208013C031DDE2841082C3C0318E628B8
:1001C000C21BE6282C30C1000130C2004108BA0031
:1001D0004208BB00D030C3001230C4001330C50049
:1001E000C601D3014308C7004408C8004508C90038
:1001F0004608CA003A08CB003B08CC00CD01BB1B27
:10020000CD03CE01BB1BCE03BB1F1229CB09CC09EA
:10021000CD09CE09CB0A0319CC0A0319CD0A03195B
:10022000CE0AD30A8F205A08CF005B08D0005C08A2
:10023000D1005D08D200531C2829CF09D009D1096B
:10024000D209CF0A0319D00A0319D10A0319D20A15
:100250004F08C3005008C4005108C5005208C6002A
:100260004308FF3CC700FF30C8004408031C440F8C
:10027000C8024708B8004808B900080020009114D7
:10028000911221009110911623001F129F159F10AB
:100290001F101E139E161E129E111E111E109D175A
:1002A0001D139D161D169C011F309B000800200089
:1002B0003E08BD00FA30C5008220C608031D622931
:1002C000C4010800C001C201C3015030420243080A
:1002D00003186C2903196E29C31FBF29C501C00863
:1002E0000319C50A451C762922000C152000451863
:1002F0007B2922000C112000C00A4008183A03197B
:10030000C001F830C5008220C608031D8929C40138
:1003100008009030C5008220C608031D9129C40141
:1003200008004208C5008220C608031D9929C4019F
:1003300008007F30C5008220C608031DA129C40122
:1003400008001E30C50007208030C5008220C60886
:10035000031DAC29C40108004208C5008220C6085C
:10036000031DB429C4010800C5018220C608031D6D
:10037000BB29C4010800C20A0319C30A6529013058
:10038000C40008007A302100990020308C00303001
:100390008E0023008C018E0120008C018E01240030
:1003A0008C16210095133E2178302000C100C20137
:1003B000CB20960197019813181398161816181445
:1003C00021001114951295111511951415148B1601
:1003D0000B118B170B17C8302000C5000720220017
:1003E0000E118E110C1120008C1E112AC201C008A2
:1003F0000319C20A421CFE2922000C1520004218D3
:10040000032A22000C112000C00A4008183A0319E0
:10041000C001F830C6003A201E302000C500072079
:10042000F32922000E1557214408C10022000E11A5
:100430002000C1080319272A22008E150C1501304F
:100440002000C2002B2022008E110C11F329220063
:100450008E110C15C8302000C500072022000C1199
:10046000C8302000C500072022000C15C83020002D
:10047000C500072022000C11C8302000C50007204D
:1004800022000C15C8302000C500072022000C11E6
:10049000C8302000C5000720F3292000BC01B801A6
:1004A000B901B401B501B601B701BD01BE01BA0180
:1004B000BB01BF01C0018031C2290B1D6A2A053072
:1004C00020009500B40A0319B50A0319B60A0319E6
:1004D000B70A0B112000111C782A3808DE005E08CC
:1004E00096003908DE005E0897000130BC0011104C
:1004F000911E0900230019082000DE003D0ADF00DC
:1005000014305F02031C862A1430DF023E085F06A7
:100510000319090000308500203084003D0884075D
:0A0520005E0880005F08BD000900BE
:020000040001F9
:02000E00A4FF4D
:02001000FFDE11
:00000001FF
